S01500004669727374204C4544204C61622E73726563E3
S11300000C942A000C9447000C9447000C9447006D
S11300100C9447000C9447000C9447000C94470040
S11300200C9447000C9447000C9447000C94470030
S11300300C9447000C9447000C9447000C94470020
S11300400C9447000C9447000C9447000C94470010
S11300500C94470011241FBECFE5D8E0DEBFCDBF0E
S113006010E0A0E6B0E0E4EBFAE002C005900D92E7
S1130070A239B107D9F720E0A2E9B0E001C01D928E
S1130080A73BB207E1F70E9404020C9458050C94B4
S113009000000E946B040E94B6020E9409020895A7
S11300A0E0919600F0E0EE0FFF1FEE55FF4F208128
S11300B03181C901880F991F220F331F220F331F6B
S11300C0220F331F820F931F2091B60030E020537C
S11300D03109820F931F9183808308950E94A8039E
S11300E01092960010929700109293001092920032
S11300F010929500109294000BC081E08E0F8093B3
S11301009700F0E0EE0FFF1FE856FF4F11821082B8
S1130110E0919700E53088F30BC081E08E0F809367
S11301209600F0E0EE0FFF1FEE55FF4F1182108294
S1130130E0919600EA3088F31092960010929700AE
S1130140089580919300E82FF0E0DF011196AA0F43
S1130150BB1FAE55BF4F4D915C91EE0FFF1FEE5587
S1130160FF4F60817181649F9001659F300D749F82
S1130170300D1124318320838093920023C0842F77
S113018090E09C012F5F3F4F220F331FF901E85687
S1130190FF4F60817181FC01EE0FFF1FE856FF4F96
S11301A071836083FC013296EE0FFF1FEE55FF4F03
S11301B080819181F901EE55FF4F918380834F5FD8
S11301C04093920040919200809197004817B8F2B2
S11301D0089520919300E22FF0E0DF011196AA0F19
S11301E0BB1FAE55BF4F6D917C91EE0FFF1FEE55B7
S11301F0FF4F808191810E94EF047183608320937B
S1130200920023C0842F90E09C012F5F3F4F220F68
S1130210331FF901E856FF4F60817181FC01EE0F35
S1130220FF1FE856FF4F71836083FC013296EE0F87
S1130230FF1FEE55FF4F80819181F901EE55FF4F6D
S1130240918380834F5F409392004091920080910C
S113025097004817B8F20895109293002EC0F0E06A
S1130260EE0FFF1FE856FF4F808191818A3291057E
S113027079F402C00E94A100E0919300F0E0EE0F37
S1130280FF1FE856FF4F808191818A9799F310C030
S11302908F9771F402C00E94E900E0919300F0E0AE
S11302A0EE0FFF1FE856FF4F808191818F9799F3DE
S11302B0809193008F5F80939300E09193008091ED
S11302C09700E81760F28091A2009091A3009093A8
S11302D095008093940008951092930037C0282FBE
S11302E030E0F901EE0FFF1FE856FF4F40815181C6
S11302F04B32510599F4F9013196EE0FFF1FEE557B
S1130300FF4F208131814091940050919500240F3A
S1130310351F309395002093940015C04D3251053C
S113032091F4F9013196EE0FFF1FEE55FF4F408116
S113033051812091940030919500241B350B30930A
S11303409500209394008F5F809393008091930095
S113035090919700891718F208950E942C010E9429
S11303606C010E94A80360E080E00E949003609109
S1130370940070919500072E000C880B990B0E9435
S11303802A0380919400909195009093A300809308
S1130390A20008950E941A028093B600882381F176
S11303A00E94CC028091B6008B3231F08D3221F064
S11303B08F3211F08A32A1F420919700E22FF0E0FD
S11303C0EE0FFF1FE856FF4F90E0918380832F5F6D
S11303D020939700809196008F5F809396000895F4
S11303E090ED980F9A3018F40E94500008958D33C0
S11303F019F40E94AD010895833611F40E946E0031
S113040008950E94CA0108950E9449000E940102B1
S1130410FDCF61E08CE00E94AC0361E08DE00E94BE
S1130420AC0361E08EE00E94AC0361E08FE00E94C7
S1130430AC0308951F93CF93DF9310E0DCE031C049
S113044060E08D2F0E94AC03CAE124C08C2F0E946F
S1130450330481111EC02D2F30E02C5031094C2F54
S113046050E04A515109220F331F220F331F2E57D8
S11304703F4FF901E40FF51F108103C08C2F0E9438
S113048033048823D9F38FE39CE90197F1F700C083
S11304900000CF5FCE31D0F261E08D2F0E94AC031B
S11304A0DF5FD03168F2812FDF91CF911F910895E2
S11304B0CF93C82F60E081E00E94AC0360E082E04B
S11304C00E94AC03C4FB662760F983E00E94AC037E
S11304D0C5FB662760F984E00E94AC03C6FB66276F
S11304E060F985E00E94AC036C2F661F6627661FC7
S11304F086E00E94AC0361E082E00E94AC038FE9D5
S11305009FE00197F1F700C0000060E082E00E94E4
S1130510AC036C2F617083E00E94AC03C1FB6627BF
S113052060F984E00E94AC03C2FB662760F985E0B1
S11305300E94AC03C3FB662760F986E00E94AC030B
S113054061E082E00E94AC038FE99FE00197F1F73C
S113055000C0000060E082E00E94AC038FE19EE4F2
S11305600197F1F700C00000CF91089583E30E9442
S1130570580282E30E94580288E20E9458028CE0EA
S11305800E94580281E00E94580286E00E945802AC
S113059082E00E9458020895CF93C82F61E081E061
S11305A00E94AC0360E082E00E94AC03C4FB6627B7
S11305B060F983E00E94AC03C5FB662760F984E020
S11305C00E94AC03C6FB662760F985E00E94AC0379
S11305D06C2F661F6627661F86E00E94AC0361E0ED
S11305E082E00E94AC038FE99FE00197F1F700C01D
S11305F0000060E082E00E94AC036C2F617083E035
S11306000E94AC03C1FB662760F984E00E94AC033E
S1130610C2FB662760F985E00E94AC03C3FB662732
S113062060F986E00E94AC0361E082E00E94AC03C2
S11306308FE99FE00197F1F700C0000060E082E0DD
S11306400E94AC038FE19EE40197F1F700C0000023
S1130650CF9108958F929F92AF92BF92CF92DF92E3
S1130660EF92FF926B017C0199235CF4F094E09487
S1130670D094C094C11CD11CE11CF11C8DE20E94D9
S1130680CC0261E070E080E090E024C0DC01CB01AA
S1130690880F991FAA1FBB1F4C015D01880C991C70
S11306A0AA1CBB1C880C991CAA1CBB1C880E991E76
S11306B0AA1EBB1EC701B6012AE030E040E050E0AC
S11306C00E942505680D791D8A1D9B1DC22ED32EFF
S11306D0E42EF52EC114D104E104F104B9F612C0DC
S11306E02AE030E040E050E00E940305C22ED32E01
S11306F0E42EF52E80E3860F0E94CC026C2D7D2D16
S11307008E2D9F2D613071058105910549F7FF906C
S1130710EF90DF90CF90BF90AF909F908F9008950F
S1130720CF93DF9300D0CDB7DEB790E8998390ECF8
S11307309A83E1E0F0E0EC0FFD1FE80FF11D8081EA
S1130740860F0E9458020F900F90DF91CF91089569
S113075081E00E9458020895982F96959695969553
S11307608770662309F43FC0613009F07BC0913083
S113077099F028F09230E9F0933041F108954BB3A9
S113078021E030E0B90102C0660F771F8A95E2F7D5
S1130790CB01842B8BBB089548B321E030E0B90131
S11307A002C0660F771F8A95E2F7CB01842B88BBC2
S11307B0089545B321E030E0B90102C0660F771F08
S11307C08A95E2F7CB01842B85BB089542B321E0DF
S11307D030E0B90102C0660F771F8A95E2F7CB01BA
S11307E0842B82BB08959130A1F028F09230F9F067
S11307F0933059F108954BB321E030E0B90102C0C0
S1130800660F771F8A95E2F7CB01809584238BBB13
S1130810089548B321E030E0B90102C0660F771FA4
S11308208A95E2F7CB018095842388BB089545B36C
S113083021E030E0B90102C0660F771F8A95E2F724
S1130840CB018095842385BB089542B321E030E039
S1130850B90102C0660F771F8A95E2F7CB01809534
S1130860842382BB0895982F969596959695482F44
S11308704770913081F028F09230B9F09330F9F05C
S113088028C099B3892F90E002C0959587954A9521
S1130890E2F78170089526B330E0C90102C095954E
S11308A087954A95E2F78170089523B330E0C90132
S11308B002C0959587954A95E2F78170089520B313
S11308C030E0C90102C0959587954A95E2F7817099
S11308D0089580E0089590E07EC0E92FF0E0EE0FE7
S11308E0FF1FE05AFF4F8081282F269526952695D5
S11308F0877031813323B9F1313009F06BC0213075
S113090089F028F02230C9F0233011F163C04AB3D2
S113091021E030E002C0220F331F8A95E2F7242B36
S11309202ABB58C047B321E030E002C0220F331F76
S11309308A95E2F7242B27BB4DC044B321E030E075
S113094002C0220F331F8A95E2F7242B24BB42C036
S113095041B321E030E002C0220F331F8A95E2F751
S1130960242B21BB37C0213091F028F02230D9F05C
S1130970233029F12FC04AB321E030E002C0220F16
S1130980331F8A95E2F7209524232ABB23C047B35B
S113099021E030E002C0220F331F8A95E2F7209550
S11309A0242327BB17C044B321E030E002C0220F48
S11309B0331F8A95E2F72095242324BB0BC041B34F
S11309C021E030E002C0220F331F8A95E2F7209520
S11309D0242321BB9F5F913108F47FCF089597FBB7
S11309E0072E16F4009407D077FD09D00E94440521
S11309F007FC05D03EF4909581959F4F089570951E
S1130A0061957F4F0895A1E21A2EAA1BBB1BFD011D
S1130A100DC0AA1FBB1FEE1FFF1FA217B307E407D9
S1130A20F50720F0A21BB30BE40BF50B661F771F31
S1130A30881F991F1A9469F7609570958095909511
S1130A409B01AC01BD01CF010895052E97FB1EF457
S1130A5000940E943C0557FD07D00E94030507FC43
S1130A6003D04EF40C943C05509540953095219557
S1130A703F4F4F4F5F4F08959095809570956195C6
S1130A807F4F8F4F9F4F0895AA1BBB1B51E107C097
S1130A90AA1FBB1FA617B70710F0A61BB70B881F0A
S1130AA0991F5A95A9F780959095BC01CD01089599
S1070AB0F894FFCFE4
S1130AB40101020103010401050106010C010D01F8
S1130AC40E010F011A001B001C001D000000000091
S1130AD400003132332B3435362D3738392A3D3042
S1050AE4632F7A
S9030000FC
